{
  "contractName": "ProjectFunding",
  "abi": [
    {
      "inputs": [
        {
          "internalType": "string",
          "name": "_projectName",
          "type": "string"
        },
        {
          "internalType": "uint256",
          "name": "_budget",
          "type": "uint256"
        },
        {
          "internalType": "address",
          "name": "_owner",
          "type": "address"
        },
        {
          "internalType": "address",
          "name": "tokenAddress",
          "type": "address"
        }
      ],
      "stateMutability": "nonpayable",
      "type": "constructor"
    },
    {
      "anonymous": false,
      "inputs": [
        {
          "indexed": false,
          "internalType": "uint256",
          "name": "budget",
          "type": "uint256"
        },
        {
          "indexed": false,
          "internalType": "address",
          "name": "funder",
          "type": "address"
        },
        {
          "indexed": false,
          "internalType": "address",
          "name": "miner",
          "type": "address"
        }
      ],
      "name": "BudgetReached",
      "type": "event"
    },
    {
      "anonymous": false,
      "inputs": [
        {
          "indexed": true,
          "internalType": "address",
          "name": "previousOwner",
          "type": "address"
        },
        {
          "indexed": true,
          "internalType": "address",
          "name": "newOwner",
          "type": "address"
        }
      ],
      "name": "OwnershipTransferred",
      "type": "event"
    },
    {
      "inputs": [],
      "name": "owner",
      "outputs": [
        {
          "internalType": "address",
          "name": "",
          "type": "address"
        }
      ],
      "stateMutability": "view",
      "type": "function"
    },
    {
      "inputs": [],
      "name": "projectName",
      "outputs": [
        {
          "internalType": "string",
          "name": "",
          "type": "string"
        }
      ],
      "stateMutability": "view",
      "type": "function"
    },
    {
      "inputs": [],
      "name": "renounceOwnership",
      "outputs": [],
      "stateMutability": "nonpayable",
      "type": "function"
    },
    {
      "inputs": [
        {
          "internalType": "address",
          "name": "newOwner",
          "type": "address"
        }
      ],
      "name": "transferOwnership",
      "outputs": [],
      "stateMutability": "nonpayable",
      "type": "function"
    },
    {
      "inputs": [
        {
          "internalType": "uint256",
          "name": "amount",
          "type": "uint256"
        }
      ],
      "name": "fundProject",
      "outputs": [],
      "stateMutability": "payable",
      "type": "function"
    },
    {
      "inputs": [],
      "name": "testAllowance",
      "outputs": [
        {
          "internalType": "uint256",
          "name": "",
          "type": "uint256"
        }
      ],
      "stateMutability": "view",
      "type": "function"
    },
    {
      "inputs": [
        {
          "internalType": "uint256",
          "name": "amount",
          "type": "uint256"
        }
      ],
      "name": "refund",
      "outputs": [],
      "stateMutability": "payable",
      "type": "function"
    },
    {
      "inputs": [
        {
          "internalType": "uint256",
          "name": "newBudget",
          "type": "uint256"
        }
      ],
      "name": "updateBudget",
      "outputs": [],
      "stateMutability": "payable",
      "type": "function"
    },
    {
      "inputs": [],
      "name": "getBudget",
      "outputs": [
        {
          "internalType": "uint256",
          "name": "",
          "type": "uint256"
        }
      ],
      "stateMutability": "view",
      "type": "function"
    },
    {
      "inputs": [],
      "name": "getRemainingBudget",
      "outputs": [
        {
          "internalType": "uint256",
          "name": "",
          "type": "uint256"
        }
      ],
      "stateMutability": "view",
      "type": "function"
    }
  ],
  "bytecode": "0x60806040523480156200001157600080fd5b5060405162001bd238038062001bd283398181016040528101906200003791906200051b565b620000576200004b620000cc60201b60201c565b620000d460201b60201c565b8360029081620000689190620007ed565b508260018190555062000081826200019860201b60201c565b80600360006101000a81548173ffffffffffffffffffffffffffffffffffffffff021916908373ffffffffffffffffffffffffffffffffffffffff16021790555050505050620009ef565b600033905090565b60008060009054906101000a900473ffffffffffffffffffffffffffffffffffffffff169050816000806101000a81548173ffffffffffffffffffffffffffffffffffffffff021916908373ffffffffffffffffffffffffffffffffffffffff1602179055508173ffffffffffffffffffffffffffffffffffffffff168173ffffffffffffffffffffffffffffffffffffffff167f8be0079c531659141344cd1fd0a4f28419497f9722a3daafe3b4186f6b6457e060405160405180910390a35050565b620001a86200022e60201b60201c565b600073ffffffffffffffffffffffffffffffffffffffff168173ffffffffffffffffffffffffffffffffffffffff16036200021a576040517f08c379a000000000000000000000000000000000000000000000000000000000815260040162000211906200095b565b60405180910390fd5b6200022b81620000d460201b60201c565b50565b6200023e620000cc60201b60201c565b73ffffffffffffffffffffffffffffffffffffffff1662000264620002bf60201b60201c565b73ffffffffffffffffffffffffffffffffffffffff1614620002bd576040517f08c379a0000000000000000000000000000000000000000000000000000000008152600401620002b490620009cd565b60405180910390fd5b565b60008060009054906101000a900473ffffffffffffffffffffffffffffffffffffffff16905090565b6000604051905090565b600080fd5b600080fd5b600080fd5b600080fd5b6000601f19601f8301169050919050565b7f4e487b7100000000000000000000000000000000000000000000000000000000600052604160045260246000fd5b620003518262000306565b810181811067ffffffffffffffff8211171562000373576200037262000317565b5b80604052505050565b600062000388620002e8565b905062000396828262000346565b919050565b600067ffffffffffffffff821115620003b957620003b862000317565b5b620003c48262000306565b9050602081019050919050565b60005b83811015620003f1578082015181840152602081019050620003d4565b60008484015250505050565b6000620004146200040e846200039b565b6200037c565b90508281526020810184848401111562000433576200043262000301565b5b62000440848285620003d1565b509392505050565b600082601f83011262000460576200045f620002fc565b5b815162000472848260208601620003fd565b91505092915050565b6000819050919050565b62000490816200047b565b81146200049c57600080fd5b50565b600081519050620004b08162000485565b92915050565b600073ffffffffffffffffffffffffffffffffffffffff82169050919050565b6000620004e382620004b6565b9050919050565b620004f581620004d6565b81146200050157600080fd5b50565b6000815190506200051581620004ea565b92915050565b60008060008060808587031215620005385762000537620002f2565b5b600085015167ffffffffffffffff811115620005595762000558620002f7565b5b620005678782880162000448565b94505060206200057a878288016200049f565b93505060406200058d8782880162000504565b9250506060620005a08782880162000504565b91505092959194509250565b600081519050919050565b7f4e487b7100000000000000000000000000000000000000000000000000000000600052602260045260246000fd5b60006002820490506001821680620005ff57607f821691505b602082108103620006155762000614620005b7565b5b50919050565b60008190508160005260206000209050919050565b60006020601f8301049050919050565b600082821b905092915050565b6000600883026200067f7fffffffffffffffffffffffffffffffffffffffffffffffffffffffffffffffff8262000640565b6200068b868362000640565b95508019841693508086168417925050509392505050565b6000819050919050565b6000620006ce620006c8620006c2846200047b565b620006a3565b6200047b565b9050919050565b6000819050919050565b620006ea83620006ad565b62000702620006f982620006d5565b8484546200064d565b825550505050565b600090565b620007196200070a565b62000726818484620006df565b505050565b5b818110156200074e57620007426000826200070f565b6001810190506200072c565b5050565b601f8211156200079d5762000767816200061b565b620007728462000630565b8101602085101562000782578190505b6200079a620007918562000630565b8301826200072b565b50505b505050565b600082821c905092915050565b6000620007c260001984600802620007a2565b1980831691505092915050565b6000620007dd8383620007af565b9150826002028217905092915050565b620007f882620005ac565b67ffffffffffffffff81111562000814576200081362000317565b5b620008208254620005e6565b6200082d82828562000752565b600060209050601f83116001811462000865576000841562000850578287015190505b6200085c8582620007cf565b865550620008cc565b601f19841662000875866200061b565b60005b828110156200089f5784890151825560018201915060208501945060208101905062000878565b86831015620008bf5784890151620008bb601f891682620007af565b8355505b6001600288020188555050505b505050505050565b600082825260208201905092915050565b7f4f776e61626c653a206e6577206f776e657220697320746865207a65726f206160008201527f6464726573730000000000000000000000000000000000000000000000000000602082015250565b600062000943602683620008d4565b91506200095082620008e5565b604082019050919050565b60006020820190508181036000830152620009768162000934565b9050919050565b7f4f776e61626c653a2063616c6c6572206973206e6f7420746865206f776e6572600082015250565b6000620009b5602083620008d4565b9150620009c2826200097d565b602082019050919050565b60006020820190508181036000830152620009e881620009a6565b9050919050565b6111d380620009ff6000396000f3fe6080604052600436106100915760003560e01c8063715018a611610059578063715018a61461014057806377a15b61146101575780638da5cb5b146101825780639a33e300146101ad578063f2fde38b146101d857610091565b8063127714c714610096578063278ecde1146100c157806351e072d6146100dd5780636bee73db146100f95780636c563abe14610124575b600080fd5b3480156100a257600080fd5b506100ab610201565b6040516100b891906109e0565b60405180910390f35b6100db60048036038101906100d69190610a2c565b61020b565b005b6100f760048036038101906100f29190610a2c565b61037b565b005b34801561010557600080fd5b5061010e6103cf565b60405161011b91906109e0565b60405180910390f35b61013e60048036038101906101399190610a2c565b610479565b005b34801561014c57600080fd5b5061015561067a565b005b34801561016357600080fd5b5061016c61068e565b60405161017991906109e0565b60405180910390f35b34801561018e57600080fd5b50610197610743565b6040516101a49190610a9a565b60405180910390f35b3480156101b957600080fd5b506101c261076c565b6040516101cf9190610b45565b60405180910390f35b3480156101e457600080fd5b506101ff60048036038101906101fa9190610b93565b6107fa565b005b6000600154905090565b600061021561068e565b11610255576040517f08c379a000000000000000000000000000000000000000000000000000000000815260040161024c90610c32565b60405180910390fd5b600460003373ffffffffffffffffffffffffffffffffffffffff1673ffffffffffffffffffffffffffffffffffffffff168152602001908152602001600020548111156102d7576040517f08c379a00000000000000000000000000000000000000000000000000000000081526004016102ce90610c9e565b60405180910390fd5b600360009054906101000a900473ffffffffffffffffffffffffffffffffffffffff1673ffffffffffffffffffffffffffffffffffffffff1663a9059cbb33836040518363ffffffff1660e01b8152600401610334929190610cbe565b6020604051808303816000875af1158015610353573d6000803e3d6000fd5b505050506040513d601f19601f820116820180604052508101906103779190610d1f565b5050565b61038361087d565b4781116103c5576040517f08c379a00000000000000000000000000000000000000000000000000000000081526004016103bc90610dbe565b60405180910390fd5b8060018190555050565b600080600360009054906101000a900473ffffffffffffffffffffffffffffffffffffffff1673ffffffffffffffffffffffffffffffffffffffff1663dd62ed3e33336040518363ffffffff1660e01b815260040161042f929190610dde565b602060405180830381865afa15801561044c573d6000803e3d6000fd5b505050506040513d601f19601f820116820180604052508101906104709190610e1c565b90508091505090565b808061048361068e565b10156104c4576040517f08c379a00000000000000000000000000000000000000000000000000000000081526004016104bb90610ebb565b60405180910390fd5b600360009054906101000a900473ffffffffffffffffffffffffffffffffffffffff1673ffffffffffffffffffffffffffffffffffffffff166323b872dd3330856040518463ffffffff1660e01b815260040161052393929190610edb565b6020604051808303816000875af1158015610542573d6000803e3d6000fd5b505050506040513d601f19601f820116820180604052508101906105669190610d1f565b5081600460003373ffffffffffffffffffffffffffffffffffffffff1673ffffffffffffffffffffffffffffffffffffffff16815260200190815260200160002060008282546105b69190610f41565b9250508190555060003073ffffffffffffffffffffffffffffffffffffffff166377a15b616040518163ffffffff1660e01b8152600401602060405180830381865afa15801561060a573d6000803e3d6000fd5b505050506040513d601f19601f8201168201806040525081019061062e9190610e1c565b11610676577f6c9d4df8ce9d103ce0aedcdc733594d0b1ec3462e4fadd8d69bd5d9619e827b761065c610201565b334160405161066d93929190610fd4565b60405180910390a15b5050565b61068261087d565b61068c60006108fb565b565b6000600360009054906101000a900473ffffffffffffffffffffffffffffffffffffffff1673ffffffffffffffffffffffffffffffffffffffff166370a08231306040518263ffffffff1660e01b81526004016106eb9190610a9a565b602060405180830381865afa158015610708573d6000803e3d6000fd5b505050506040513d601f19601f8201168201806040525081019061072c9190610e1c565b610734610201565b61073e919061100b565b905090565b60008060009054906101000a900473ffffffffffffffffffffffffffffffffffffffff16905090565b600280546107799061106e565b80601f01602080910402602001604051908101604052809291908181526020018280546107a59061106e565b80156107f25780601f106107c7576101008083540402835291602001916107f2565b820191906000526020600020905b8154815290600101906020018083116107d557829003601f168201915b505050505081565b61080261087d565b600073ffffffffffffffffffffffffffffffffffffffff168173ffffffffffffffffffffffffffffffffffffffff1603610871576040517f08c379a000000000000000000000000000000000000000000000000000000000815260040161086890611111565b60405180910390fd5b61087a816108fb565b50565b6108856109bf565b73ffffffffffffffffffffffffffffffffffffffff166108a3610743565b73ffffffffffffffffffffffffffffffffffffffff16146108f9576040517f08c379a00000000000000000000000000000000000000000000000000000000081526004016108f09061117d565b60405180910390fd5b565b60008060009054906101000a900473ffffffffffffffffffffffffffffffffffffffff169050816000806101000a81548173ffffffffffffffffffffffffffffffffffffffff021916908373ffffffffffffffffffffffffffffffffffffffff1602179055508173ffffffffffffffffffffffffffffffffffffffff168173ffffffffffffffffffffffffffffffffffffffff167f8be0079c531659141344cd1fd0a4f28419497f9722a3daafe3b4186f6b6457e060405160405180910390a35050565b600033905090565b6000819050919050565b6109da816109c7565b82525050565b60006020820190506109f560008301846109d1565b92915050565b600080fd5b610a09816109c7565b8114610a1457600080fd5b50565b600081359050610a2681610a00565b92915050565b600060208284031215610a4257610a416109fb565b5b6000610a5084828501610a17565b91505092915050565b600073ffffffffffffffffffffffffffffffffffffffff82169050919050565b6000610a8482610a59565b9050919050565b610a9481610a79565b82525050565b6000602082019050610aaf6000830184610a8b565b92915050565b600081519050919050565b600082825260208201905092915050565b60005b83811015610aef578082015181840152602081019050610ad4565b60008484015250505050565b6000601f19601f8301169050919050565b6000610b1782610ab5565b610b218185610ac0565b9350610b31818560208601610ad1565b610b3a81610afb565b840191505092915050565b60006020820190508181036000830152610b5f8184610b0c565b905092915050565b610b7081610a79565b8114610b7b57600080fd5b50565b600081359050610b8d81610b67565b92915050565b600060208284031215610ba957610ba86109fb565b5b6000610bb784828501610b7e565b91505092915050565b7f416374696f6e20466f7262696464656e2c2050726f6a6563742042756467657460008201527f20416c7265616479205265616368656420210000000000000000000000000000602082015250565b6000610c1c603283610ac0565b9150610c2782610bc0565b604082019050919050565b60006020820190508181036000830152610c4b81610c0f565b9050919050565b7f594f5520474f542043415547485420594f552054484945462021000000000000600082015250565b6000610c88601a83610ac0565b9150610c9382610c52565b602082019050919050565b60006020820190508181036000830152610cb781610c7b565b9050919050565b6000604082019050610cd36000830185610a8b565b610ce060208301846109d1565b9392505050565b60008115159050919050565b610cfc81610ce7565b8114610d0757600080fd5b50565b600081519050610d1981610cf3565b92915050565b600060208284031215610d3557610d346109fb565b5b6000610d4384828501610d0a565b91505092915050565b7f50726f706f73656420427564676574206973204c6f776572205468616e20437560008201527f7272656e742042616c616c6e6365202100000000000000000000000000000000602082015250565b6000610da8603083610ac0565b9150610db382610d4c565b604082019050919050565b60006020820190508181036000830152610dd781610d9b565b9050919050565b6000604082019050610df36000830185610a8b565b610e006020830184610a8b565b9392505050565b600081519050610e1681610a00565b92915050565b600060208284031215610e3257610e316109fb565b5b6000610e4084828501610e07565b91505092915050565b7f416374696f6e20466f7262696464656e2c20416d6f756e74204578636565647360008201527f2052656d61696e696e6720427564676574202100000000000000000000000000602082015250565b6000610ea5603383610ac0565b9150610eb082610e49565b604082019050919050565b60006020820190508181036000830152610ed481610e98565b9050919050565b6000606082019050610ef06000830186610a8b565b610efd6020830185610a8b565b610f0a60408301846109d1565b949350505050565b7f4e487b7100000000000000000000000000000000000000000000000000000000600052601160045260246000fd5b6000610f4c826109c7565b9150610f57836109c7565b9250828201905080821115610f6f57610f6e610f12565b5b92915050565b6000819050919050565b6000610f9a610f95610f9084610a59565b610f75565b610a59565b9050919050565b6000610fac82610f7f565b9050919050565b6000610fbe82610fa1565b9050919050565b610fce81610fb3565b82525050565b6000606082019050610fe960008301866109d1565b610ff66020830185610a8b565b6110036040830184610fc5565b949350505050565b6000611016826109c7565b9150611021836109c7565b925082820390508181111561103957611038610f12565b5b92915050565b7f4e487b7100000000000000000000000000000000000000000000000000000000600052602260045260246000fd5b6000600282049050600182168061108657607f821691505b6020821081036110995761109861103f565b5b50919050565b7f4f776e61626c653a206e6577206f776e657220697320746865207a65726f206160008201527f6464726573730000000000000000000000000000000000000000000000000000602082015250565b60006110fb602683610ac0565b91506111068261109f565b604082019050919050565b6000602082019050818103600083015261112a816110ee565b9050919050565b7f4f776e61626c653a2063616c6c6572206973206e6f7420746865206f776e6572600082015250565b6000611167602083610ac0565b915061117282611131565b602082019050919050565b600060208201905081810360008301526111968161115a565b905091905056fea2646970667358221220fa641dea4c614730b011faca2661a7d088ea95eb1a2f5e75a9d0c23d1ee3631564736f6c63430008110033",
  "immutableReferences": {},
  "source": "// SPDX-License-Identifier: MIT\n\npragma solidity 0.8.17;\n\nimport \"@openzeppelin/contracts/access/Ownable.sol\";\nimport \"./RVLToken.sol\";\n\ncontract ProjectFunding is Ownable {\n    uint256 internal budget;\n    string public projectName;\n    RVLToken internal rvlToken;\n    mapping(address=>uint256) private investors;\n    event BudgetReached(uint256 budget, address funder, address miner);\n\n    constructor(string memory _projectName, uint256 _budget, address _owner, address tokenAddress) {\n        projectName = _projectName;\n        budget = _budget;\n        transferOwnership(_owner);\n        rvlToken = RVLToken(tokenAddress);\n    }\n\n    modifier budgetNotReached {\n        require(getRemainingBudget() > 0, 'Action Forbidden, Project Budget Already Reached !');\n        _;\n    }\n\n    modifier acceptsFunding(uint256 amount) {\n        require(getRemainingBudget() >= amount, 'Action Forbidden, Amount Exceeds Remaining Budget !');\n        _;\n    }\n\n    function fundProject(uint256 amount) payable public acceptsFunding(amount) {\n        rvlToken.transferFrom(msg.sender, address(this), amount);\n        investors[msg.sender] += amount;\n        if (this.getRemainingBudget() <=0 ) {\n            emit BudgetReached(getBudget(), msg.sender, block.coinbase);\n        }\n    }\n\n    function testAllowance() public view returns(uint256) {\n        uint256 allowance = rvlToken.allowance(msg.sender, msg.sender);\n        return allowance;\n    }\n\n    function refund(uint256 amount) payable public budgetNotReached {\n        require(amount <= investors[msg.sender], 'YOU GOT CAUGHT YOU THIEF !');\n        rvlToken.transfer(msg.sender, amount);\n    }\n\n    function updateBudget(uint256 newBudget) payable public onlyOwner{\n        require(newBudget > address(this).balance, 'Proposed Budget is Lower Than Current Balalnce !');\n        budget = newBudget;\n    }\n\n    function getBudget() public view returns (uint256) {\n        return budget;\n    }\n\n    function getRemainingBudget() public view returns (uint256) {\n        return getBudget() - rvlToken.balanceOf(address(this));\n    }\n}",
  "sourcePath": "/Users/nourkaroui/Desktop/web3/project crowdfunding/crowdfunding/contracts/ProjectFunding.sol",
  "compiler": {
    "name": "solc",
    "version": "0.8.17+commit.8df45f5f.Emscripten.clang"
  },
  "schemaVersion": "3.4.11",
  "updatedAt": "2023-01-06T09:18:53.204Z",
  "devdoc": {
    "kind": "dev",
    "methods": {
      "owner()": {
        "details": "Returns the address of the current owner."
      },
      "renounceOwnership()": {
        "details": "Leaves the contract without owner. It will not be possible to call `onlyOwner` functions anymore. Can only be called by the current owner. NOTE: Renouncing ownership will leave the contract without an owner, thereby removing any functionality that is only available to the owner."
      },
      "transferOwnership(address)": {
        "details": "Transfers ownership of the contract to a new account (`newOwner`). Can only be called by the current owner."
      }
    },
    "version": 1
  },
  "userdoc": {
    "kind": "user",
    "methods": {},
    "version": 1
  }
}