{
  "contractName": "RVLFaucet",
  "abi": [
    {
      "inputs": [
        {
          "internalType": "address",
          "name": "tokenAddress",
          "type": "address"
        }
      ],
      "stateMutability": "nonpayable",
      "type": "constructor"
    },
    {
      "anonymous": false,
      "inputs": [
        {
          "indexed": true,
          "internalType": "address",
          "name": "previousOwner",
          "type": "address"
        },
        {
          "indexed": true,
          "internalType": "address",
          "name": "newOwner",
          "type": "address"
        }
      ],
      "name": "OwnershipTransferred",
      "type": "event"
    },
    {
      "inputs": [],
      "name": "owner",
      "outputs": [
        {
          "internalType": "address",
          "name": "",
          "type": "address"
        }
      ],
      "stateMutability": "view",
      "type": "function",
      "constant": true
    },
    {
      "inputs": [],
      "name": "renounceOwnership",
      "outputs": [],
      "stateMutability": "nonpayable",
      "type": "function"
    },
    {
      "inputs": [
        {
          "internalType": "address",
          "name": "newOwner",
          "type": "address"
        }
      ],
      "name": "transferOwnership",
      "outputs": [],
      "stateMutability": "nonpayable",
      "type": "function"
    },
    {
      "inputs": [
        {
          "internalType": "address",
          "name": "_address",
          "type": "address"
        }
      ],
      "name": "fundAccount",
      "outputs": [],
      "stateMutability": "payable",
      "type": "function",
      "payable": true
    },
    {
      "inputs": [
        {
          "internalType": "uint256",
          "name": "fundAmount",
          "type": "uint256"
        }
      ],
      "name": "fundFaucet",
      "outputs": [],
      "stateMutability": "payable",
      "type": "function",
      "payable": true
    },
    {
      "inputs": [],
      "name": "refundOwner",
      "outputs": [],
      "stateMutability": "payable",
      "type": "function",
      "payable": true
    }
  ],
  "bytecode": "0x608060405234801561001057600080fd5b50604051610cbf380380610cbf833981810160405281019061003291906101c4565b61004e61004361009560201b60201c565b61009d60201b60201c565b80600160006101000a81548173ffffffffffffffffffffffffffffffffffffffff021916908373ffffffffffffffffffffffffffffffffffffffff160217905550506101f1565b600033905090565b60008060009054906101000a900473ffffffffffffffffffffffffffffffffffffffff169050816000806101000a81548173ffffffffffffffffffffffffffffffffffffffff021916908373ffffffffffffffffffffffffffffffffffffffff1602179055508173ffffffffffffffffffffffffffffffffffffffff168173ffffffffffffffffffffffffffffffffffffffff167f8be0079c531659141344cd1fd0a4f28419497f9722a3daafe3b4186f6b6457e060405160405180910390a35050565b600080fd5b600073ffffffffffffffffffffffffffffffffffffffff82169050919050565b600061019182610166565b9050919050565b6101a181610186565b81146101ac57600080fd5b50565b6000815190506101be81610198565b92915050565b6000602082840312156101da576101d9610161565b5b60006101e8848285016101af565b91505092915050565b610abf806102006000396000f3fe6080604052600436106100555760003560e01c80635b6f032e1461005a578063715018a6146100765780638c47ddcc1461008d5780638da5cb5b14610097578063ae0140b4146100c2578063f2fde38b146100de575b600080fd5b610074600480360381019061006f91906106f2565b610107565b005b34801561008257600080fd5b5061008b610299565b005b6100956102ad565b005b3480156100a357600080fd5b506100ac6103f3565b6040516100b9919061072e565b60405180910390f35b6100dc60048036038101906100d7919061077f565b61041c565b005b3480156100ea57600080fd5b50610105600480360381019061010091906106f2565b6104c2565b005b670de0b6b3a7640000600160009054906101000a900473ffffffffffffffffffffffffffffffffffffffff1673ffffffffffffffffffffffffffffffffffffffff166370a08231306040518263ffffffff1660e01b815260040161016b919061072e565b602060405180830381865afa158015610188573d6000803e3d6000fd5b505050506040513d601f19601f820116820180604052508101906101ac91906107c1565b10156101ed576040517f08c379a00000000000000000000000000000000000000000000000000000000081526004016101e490610897565b60405180910390fd5b600160009054906101000a900473ffffffffffffffffffffffffffffffffffffffff1673ffffffffffffffffffffffffffffffffffffffff1663a9059cbb82670de0b6b3a76400006040518363ffffffff1660e01b81526004016102529291906108c6565b6020604051808303816000875af1158015610271573d6000803e3d6000fd5b505050506040513d601f19601f820116820180604052508101906102959190610927565b5050565b6102a1610545565b6102ab60006105c3565b565b6102b5610545565b600160009054906101000a900473ffffffffffffffffffffffffffffffffffffffff1673ffffffffffffffffffffffffffffffffffffffff1663a9059cbb33600160009054906101000a900473ffffffffffffffffffffffffffffffffffffffff1673ffffffffffffffffffffffffffffffffffffffff166370a08231306040518263ffffffff1660e01b815260040161034f919061072e565b602060405180830381865afa15801561036c573d6000803e3d6000fd5b505050506040513d601f19601f8201168201806040525081019061039091906107c1565b6040518363ffffffff1660e01b81526004016103ad9291906108c6565b6020604051808303816000875af11580156103cc573d6000803e3d6000fd5b505050506040513d601f19601f820116820180604052508101906103f09190610927565b50565b60008060009054906101000a900473ffffffffffffffffffffffffffffffffffffffff16905090565b600160009054906101000a900473ffffffffffffffffffffffffffffffffffffffff1673ffffffffffffffffffffffffffffffffffffffff166323b872dd3330846040518463ffffffff1660e01b815260040161047b93929190610954565b6020604051808303816000875af115801561049a573d6000803e3d6000fd5b505050506040513d601f19601f820116820180604052508101906104be9190610927565b5050565b6104ca610545565b600073ffffffffffffffffffffffffffffffffffffffff168173ffffffffffffffffffffffffffffffffffffffff1603610539576040517f08c379a0000000000000000000000000000000000000000000000000000000008152600401610530906109fd565b60405180910390fd5b610542816105c3565b50565b61054d610687565b73ffffffffffffffffffffffffffffffffffffffff1661056b6103f3565b73ffffffffffffffffffffffffffffffffffffffff16146105c1576040517f08c379a00000000000000000000000000000000000000000000000000000000081526004016105b890610a69565b60405180910390fd5b565b60008060009054906101000a900473ffffffffffffffffffffffffffffffffffffffff169050816000806101000a81548173ffffffffffffffffffffffffffffffffffffffff021916908373ffffffffffffffffffffffffffffffffffffffff1602179055508173ffffffffffffffffffffffffffffffffffffffff168173ffffffffffffffffffffffffffffffffffffffff167f8be0079c531659141344cd1fd0a4f28419497f9722a3daafe3b4186f6b6457e060405160405180910390a35050565b600033905090565b600080fd5b600073ffffffffffffffffffffffffffffffffffffffff82169050919050565b60006106bf82610694565b9050919050565b6106cf816106b4565b81146106da57600080fd5b50565b6000813590506106ec816106c6565b92915050565b6000602082840312156107085761070761068f565b5b6000610716848285016106dd565b91505092915050565b610728816106b4565b82525050565b6000602082019050610743600083018461071f565b92915050565b6000819050919050565b61075c81610749565b811461076757600080fd5b50565b60008135905061077981610753565b92915050565b6000602082840312156107955761079461068f565b5b60006107a38482850161076a565b91505092915050565b6000815190506107bb81610753565b92915050565b6000602082840312156107d7576107d661068f565b5b60006107e5848285016107ac565b91505092915050565b600082825260208201905092915050565b7f54686520666175636574206973206472792c20536f7272792c20436f6d65206260008201527f61636b206c61746572207768656e2054686520706c756d62657220686173206660208201527f6978656420746865206c65616b21000000000000000000000000000000000000604082015250565b6000610881604e836107ee565b915061088c826107ff565b606082019050919050565b600060208201905081810360008301526108b081610874565b9050919050565b6108c081610749565b82525050565b60006040820190506108db600083018561071f565b6108e860208301846108b7565b9392505050565b60008115159050919050565b610904816108ef565b811461090f57600080fd5b50565b600081519050610921816108fb565b92915050565b60006020828403121561093d5761093c61068f565b5b600061094b84828501610912565b91505092915050565b6000606082019050610969600083018661071f565b610976602083018561071f565b61098360408301846108b7565b949350505050565b7f4f776e61626c653a206e6577206f776e657220697320746865207a65726f206160008201527f6464726573730000000000000000000000000000000000000000000000000000602082015250565b60006109e76026836107ee565b91506109f28261098b565b604082019050919050565b60006020820190508181036000830152610a16816109da565b9050919050565b7f4f776e61626c653a2063616c6c6572206973206e6f7420746865206f776e6572600082015250565b6000610a536020836107ee565b9150610a5e82610a1d565b602082019050919050565b60006020820190508181036000830152610a8281610a46565b905091905056fea264697066735822122023d116fccd9762dfc7d5edf17d3c5237d8f864c9144a7b751755688d7d72b65464736f6c63430008110033",
  "immutableReferences": {},
  "source": "// SPDX-License-Identifier: MIT\n\npragma solidity 0.8.17;\n\nimport \"./RVLToken.sol\";\nimport \"@openzeppelin/contracts/access/Ownable.sol\";\n\ncontract RVLFaucet is Ownable {\n    RVLToken private token;\n    uint256 constant amount = 1000000000000000000;\n\n    constructor(address tokenAddress) {\n        token = RVLToken(tokenAddress);\n    }\n\n    function fundAccount(address _address) payable public {\n        require(token.balanceOf(address(this)) >= amount, \"The faucet is dry, Sorry, Come back later when The plumber has fixed the leak!\");\n        token.transfer(_address, amount);\n    }\n\n    function fundFaucet(uint256 fundAmount) payable public {\n        token.transferFrom(msg.sender, address(this), fundAmount);\n    }\n\n    function refundOwner() payable public onlyOwner {\n        token.transfer(msg.sender, token.balanceOf(address(this)));\n    }\n}",
  "sourcePath": "/Users/nourkaroui/Desktop/web3/project crowdfunding/crowdfunding/contracts/RVLFaucet.sol",
  "compiler": {
    "name": "solc",
    "version": "0.8.17+commit.8df45f5f.Emscripten.clang"
  },
  "schemaVersion": "3.4.11",
  "updatedAt": "2023-01-04T15:06:15.203Z",
  "networkType": "ethereum",
  "devdoc": {
    "kind": "dev",
    "methods": {
      "owner()": {
        "details": "Returns the address of the current owner."
      },
      "renounceOwnership()": {
        "details": "Leaves the contract without owner. It will not be possible to call `onlyOwner` functions anymore. Can only be called by the current owner. NOTE: Renouncing ownership will leave the contract without an owner, thereby removing any functionality that is only available to the owner."
      },
      "transferOwnership(address)": {
        "details": "Transfers ownership of the contract to a new account (`newOwner`). Can only be called by the current owner."
      }
    },
    "version": 1
  },
  "userdoc": {
    "kind": "user",
    "methods": {},
    "version": 1
  }
}